:200000000C94D0020C94F8020C94F8020C94F8020C94F8020C94F8020C94F8020C94F80238
:200020000C94F8020C9421090C94F8020C94F8020C94F8020C94F8020C94F8020C94F802C0
:200040000C9446210C94F8020C9447230C947E230C94F8020C94F8020C94F8020C94F8024C
:200060000C94651D0C94F80207634236B79BD8A71A39685618AEBAAB558C1D3CB7CC57635E
:20008000BD6DEDFD753EF6177231BF000000803F08000000BE922449123EABAAAA2ABECDA2
:2000A000CCCC4C3E00000080BEABAAAAAA3E00000000BF000000803F0000000000084178BA
:2000C000D3BB4387D1133D190E3CC3BD4282AD2B3E68EC8276BED98FE1A93E4C80EFFFBE38
:2000E00001C4FF7F3F0000000000000409090001000200030100010402000204030103024B
:20010000030309090000000401000101010201030104020409090000000300040100010291
:20012000010402000202020403010304090900000004010001020104020002020204030174
:20014000030309090000000100020102020002010202020302040302090900000001000253
:2001600000040100010201040200020202040300030309090001000200030100010201043C
:2001800002000202020403030909000001000103010402000202030003010909000100030E
:2001A0000100010201040200020202040301030309090001010001020104020002020204F8
:2001C0000301030203030909000100030909000000010004010001010103020203010303CE
:2001E0000304040004030404090900010100010202010909000100020003000401000102AB
:2002000002000202030103020303030409090000000100020003000401000102010402009B
:20022000020202040301030309090001000200030100010402000204030103030909000068
:2002400000010002000300040100010402000204030103020303090900000001000200035F
:2002600000040100010201040200020202040300030409090000000100020003000401003E
:2002800001020200020203000909000100020003010001040200020202040300030203031A
:2002A0000909000000010002000300040102020203000301030203030304090900000004EC
:2002C0000100010101020103010402000204090900030104020403000301030203030909C3
:2002E0000000000100020003000401020201020303000304090900000001000200030004C3
:2003000001040204090900000001000200030004010102020301040004010402040304048E
:20032000090900000001000200030004010102020303040004010402040304040909000164
:2003400000020003010001040200020403010302030309090000000100020003000401005E
:20036000010202000202030109090001000200030100010402000203020403010302030336
:2003800003040909000000010002000300040100010202000202020303010304090900010D
:2003A0000004010001020104020002020204030003030909000001000101010201030104FA
:2003C0000200090900000001000200030104020403000301030203030909000000010102D0
:2003E0000103020403020303040004010909000000010002000301040200020102020203B4
:20040000030404000401040204030909000000040101010302020301030304000404090977
:2004200000000101020202030204030104000909000000030004010001020104020002017C
:200440000204090900000000240027002A0000000000250028002B0000000000230026004E
:20046000290004040404040404040202020202020303030303030102040810204080010213
:2004800004081020010204081020000000070002010000030406000000000000000000408A
:2004A0007A10F35A00A0724E18090010A5D4E80000E87648170000E40B54020000CA9A3BD2
:2004C000000000E1F505000080969800000040420F000000A08601000000102700000000A4
:2004E000E803000000006400000000000A00000000000100000000002C76D888DC674F0806
:2005000023DFC1DFAE59E1B1B796E5E3E453C63AE651997696E8E6C28426EB898C9B62ED54
:20052000407C6FFCEFBC9C9F40F2BAA56FA5F490055A2AF75C936B6CF9676DC11BFCE0E4D6
:200540000D47FEF520E6B500D0ED902E0300943577050080841E080000204E0A000000C86C
:200560000C333333330F986E12831141EF8D2114893BE65516CFFEE6DB18D1844B381BF751
:200580007C1D901DA4BBE424203284725E228100C9F124ECA1E53D27780EAF1B011CAF2471
:2005A00011241FBECFEFD8E0DEBFCDBF15E0A0E0B1E0E4E9F7E502C005900D92A030B1075D
:2005C000D9F717E0A0E0B5E001C01D92A93EB107E1F715E0C0EAD5E004C02297FE010E94E6
:2005E0008D2BC839D107C9F70E94FF240C94C82B0C940000EF92FF920F931F93F22FF02E0D
:2006000047FD02C0E4E001C0E4E1242F332727FD309537FF03C0309521953F4F4F2D512FF6
:200620000F2FEE2E0E949E058F2D912F1F910F91FF90EF900895A0E0B0E0E1E2F3E00C945E
:20064000992BEC01A880B980CA80DB80A114B104C104D10441F484E2A82E89EDB82E8BE5A2
:20066000C82E87E0D82EC601B5012DE133EF41E050E00E945C2B27EA31E440E050E00E94D8
:20068000FC2A7B018C01C601B5012DE133EF41E050E00E945C2BCA01B9012CEE34EF4FEF04
:2006A0005FEF0E94FC2A6E0D7F1D801F911F97FF04C06150704080409048688379838A8377
:2006C0009B839B01AC015F77B901CA01CDB7DEB7EAE00C94B52B0E941B03089583E892E0BB
:2006E0000E941B030895609383027093840280938502909386020895FB019F01E894423030
:20070000C4F04532B4F44A3029F497FB1EF4909581959F4F642F77270E94772B805D8A3393
:200720000CF0895D8193CB010097A1F716F45DE251931082C9010C94EE07AEE0B0E0E3EABF
:20074000F3E00C949F2B0D891E8986E08C831A8309838FEF9FE79E838D839E01275E3F4F9A
:20076000CE0101966F89788DA9010E94C1032F813885020F131FF80110822E96E4E00C94A3
:20078000BB2BABE0B0E0E7ECF3E00C94912B3C012B015A01FC0117821682838181FD03C01F
:2007A0006FEF7FEFC6C19AE0892E1E010894211C311CF3012381F20123FD859123FF81917B
:2007C0002F01882309F4B2C1853239F423FD859123FF81912F01853229F490E0B3010E94B6
:2007E000FE07E7CF982FFF24EE249924FFE1FF15D0F09B3269F09C3228F4903259F09332F1
:2008000091F40EC09D3249F0903369F441E024C052E0F52A84E0F82A28C098E0F92A25C019
:20082000E0E1FE2A22C0F7FC29C0892F80538A3070F4F6FE05C0989C902C1124980E15C00F
:20084000E89CE02C1124E80EF0E2FF2A0EC09E3229F4F6FC6BC140E4F42A07C09C3619F421
:2008600050E8F52A02C0983649F4F20123FD959123FF91912F01992309F0B8CF892F8554DA
:20088000833018F08052833038F444E050E0A40EB51E5FE359830FC0933631F0933779F009
:2008A000933509F056C020C0F5018081898342E050E0A40EB51E610101E010E012C0F501AC
:2008C000C080D180F6FC03C06FEF7FEF02C0692D70E042E050E0A40EB51EC6010E94E30734
:2008E0008C015FE7F52214C0F501C080D180F6FC03C06FEF7FEF02C0692D70E042E050E038
:20090000A40EB51EC6010E94D8078C0150E8F52AF3FE07C01AC080E290E0B3010E94FE0767
:20092000EA948E2D90E008171907A8F30EC0F601F7FC8591F7FE81916F0190E0B3010E9429
:20094000FE07E110EA94015010400115110579F7EAC0943611F0993669F5F7FE08C0F50191
:20096000208131814281538184E090E00AC0F501808191819C01442737FD4095542F82E0F0
:2009800090E0A80EB91E9FE6F92257FF09C050954095309521953F4F4F4F5F4FE0E8FE2A9C
:2009A000CA01B901A1012AE030E00E942A08D82ED21840C0953729F41F2D1F7E2AE030E046
:2009C0001DC01F2D197F9F3661F0903720F4983509F0ACC00FC0903739F0983709F0A6C036
:2009E00004C028E030E00AC0106114FD146020E130E004C014FD166020E132E017FF08C00E
:200A0000F501608171818281938144E050E008C0F50180819181BC0180E090E042E050E0F2
:200A2000A40EB51EA1010E942A08D82ED2188FE7F82EF122F6FE0BC05EEFF522D91438F4E0
:200A4000F4FE07C0F2FC05C08FEEF82202C01D2D01C0192DF4FE0DC0FE01ED0DF11D8081B9
:200A6000803319F499EEF92208C01F5FF2FE05C003C08F2D867809F01F5F0F2DF3FC14C026
:200A8000F0FE0FC01E1510F09D2C0BC09D2C9E0C911A1E2D06C080E290E0B3010E94FE0776
:200AA0001F5F1E15C0F304C01E1510F4E11A01C0EE2404FF0FC080E390E0B3010E94FE0709
:200AC00002FF1DC001FD03C088E790E00EC088E590E00BC0802F867891F001FF02C08BE2C5
:200AE00001C080E2F7FC8DE290E0B3010E94FE0706C080E390E0B3010E94FE079A94D91497
:200B0000C0F3DA94F101ED0DF11D808190E0B3010E94FE07DD20A9F706C080E290E0B30105
:200B20000E94FE07EA94EE20C1F743CEF30166817781CB012B96E2E10C94AD2BA9E0B0E005
:200B4000E4EAF5E00C94952B6A01122FA02EBE2C2BE3201718F42CE3922E02C0902E939467
:200B6000AE014F5F5F4F27E0092D0E940007BC018981E82EFF24C70189709070019711F426
:200B8000ADE209C0B1FE02C0ABE205C0B0FC02C0A0E001C0A0E2E3FE3BC0AA2311F423E058
:200BA00001C024E0211710F020E002C0121B212FEB2CB4FE02C0322F0AC0F601322F80E289
:200BC00002C0819331503323E1F7C20ED11CAA2319F0F601A1936F01F6013196E2FE05C0FF
:200BE0009EE4D6019C9381E404C09EE6D6019C9381E611968C9391833296DF01832F90E2AD
:200C000002C09D9381508823E1F7E30FF11D40C0E2FE42C0AA2311F423E001C024E02117DA
:200C200010F020E002C0121B212FEB2CB4FE02C0922F0AC0F601922F80E202C0819391508E
:200C40009923E1F7C20ED11CAA2319F0F601A1936F01F6013196E2FE08C089E4D6018C9309
:200C60008EE411968C9386E407C089E6D6018C938EE611968C9386E681833296DF01892F9C
:200C800020E202C02D9381508823E1F7E90FF11D10822EEF3FEFAFC0161617061CF041E0B4
:200CA00050E003C0AB014F5F5F4FAA2019F480E090E003C08A2D90E0019620E030E0AA2334
:200CC00011F021E030E0240F351F280F391F812F90E02817390714F020E002C0121B212F0A
:200CE0004B2D50E0CA0180719070B4FC0DC0B3FC0BC0F601322F40E202C0419331503323B2
:200D0000E1F7C20ED11C01C0322FAA2319F0F601A1936F01892B11F0132F0AC0F601132FB1
:200D200080E302C0819311501123E1F7C30ED11C092D060FBA8090E1892E912C8E209F2078
:200D4000E4FE04C0F1E3BF1609F40150101614F001E003C0093008F008E09B0177FF02C03B
:200D600020E030E0CB010196821B930BFE013196E80FF91F8EE2F82E3B01601A71088A2D74
:200D800090E044275527481B590B8FEF2F3F380719F4D601FD926D01621773072CF06216A2
:200DA000730614F4808101C080E32150304031962417350724F0D6018D936D01E6CF261703
:200DC000370749F4B5E3BB1528F0BB1621F48114910409F481E3F6018193D601812F90E2A3
:200DE00002C09C93815011968823D9F7E10FF11D108220E030E0C9012996EEE00C94B12B9C
:200E0000283008F027E03327DA01990F311D87FD916000966105710539F432602E5F3D934D
:200E200030E32A95E1F708959F3F30F080387105610509F03C5F3C5F3D93913008F0806839
:200E4000911DDF93CF931F930F93FF92EF92192F987F9695E92F96959695E90FFF27E8505C
:200E6000FB4F99273327EE24FF24A701E70105900894079428F4360FE71EF81E491F511D2B
:200E8000660F771F881F991F0694A1F70590079428F4E70EF81E491F561FC11D770F881F77
:200EA000991F661F0694A1F70590079428F4F80E491F561FC71FD11D880F991F661F771F56
:200EC0000694A1F70590079420F4490F561FC71FD81F990F661F771F881F0694A9F7849139
:200EE0001095177041F0D695C79557954795F794E7941A95C1F7EEE9F4E0689415901591A7
:200F000035916591959105907FE27395E118F10A430B560BC90BD009C0F7E10CF11E431F8C
:200F2000561FC91FD01D7EF4703311F48A95E6CFE894015030F0080F0AF40027021708F43B
:200F4000202F2395022F7A3328F079E37D932A95E9F710C07D932A9589F6069497956795A9
:200F6000379517951794E118F10A430B560BC90BD00998F023957E9173957A3308F070E3AF
:200F80007C932013B8F77E9170617D9330F0839571E37D9370E32A95E1F71124EF90FF90A7
:200FA0000F911F91CF91DF91992787FD90950895FC010590615070400110D8F780959095FE
:200FC0008E0F9F1F0895FC016150704001900110D8F7809590958E0F9F1F0895DC01FC013E
:200FE000672F71917723E1F7329704C07C916D9370836291AE17BF07C8F308950F931F9330
:20100000CF93DF938C01EB018B8181FF1BC082FF0DC02E813F818C819D812817390764F45D
:20102000E881F9810193F983E88306C0E885F985802F0995892B31F48E819F8101969F8393
:201040008E8302C00FEF1FEFC801DF91CF911F910F910895FA01AA27283051F1203181F102
:20106000E8946F936E7F6E5F7F4F8F4F9F4FAF4FB1E03ED0B4E03CD0670F781F891F9A1FF3
:20108000A11D680F791F8A1F911DA11D6A0F711D811D911DA11D20D009F468943F912AE09A
:2010A000269F11243019305D3193DEF6CF010895462F4770405D4193B3E00FD0C9F7F6CFC7
:2010C000462F4F70405D4A3318F0495D31FD4052419302D0A9F7EACFB4E0A695979587953E
:2010E00077956795BA95C9F700976105710508959B01AC010A2E069457954795379527955E
:20110000BA95C9F7620F731F841F951FA01D0895742F462F50E020918D0230918E02429F52
:20112000F001439FF00D529FF00D1124E80FF11DEE0FFF1FE050FD4F20819181882329F4A5
:20114000662319F42CE092E004C0283010F430E001C038E1892F90E00297880F991F522FE0
:20116000569556955695580F530F277081E090E0482F01C0440F2A95EAF7772321F0809196
:20118000C20581FF77E020E030E0A72FB0E0652F70E0542F50958091C6059091C705F9012C
:2011A000EE0FFF1F2A173B077CF4E20FF31FEE0FFF1FEE0FFF1FEE0FFF1FE60FF71FE80FCB
:2011C000F91F8081842B0EC0E20FF31FEE0FFF1FEE0FFF1FEE0FFF1FE60FF71FE80FF91F0B
:2011E0008081852380832F5F3F4F2730310599F60895FF920F931F93CF93DF93F82E00E0AF
:2012000010E00FC0802F6C2F4F2D0E948808219680918B0290918C02C817D9079CF30F5F57
:201220001F4F80918D0290918E02081719071CF4C0E0D0E0EDCFDF91CF911F910F91FF90E5
:2012400008951F920F920FB60F921124BF92CF92DF92EF92FF920F931F932F933F934F9305
:201260005F936F937F938F939F93AF93BF93CF93DF93EF93FF931AB814B8C090C905D0907C
:20128000CA05B090EF05EB2CFF24F601EE0DFF1D80858093B10080818093B20086E08B156E
:2012A00008F4ADC04091F005463048F550E0A091C405B091C5058A01000F111F9701220F84
:2012C000331F2E0D3F1D83E0220F331F8A95E1F7F901E00FF11FEA0FFB1F60814E5F5F4F00
:2012E00081E090E002C0880F991F4A95E2F7862B8AB96BB9A20FB31FA00FB11F56C04C30A8
:2013000050F5A091C405B091C50550E0BA01660F771FC701880F991F8E0D9F1DE3E0880FC5
:20132000991FEA95E1F7FC01E60FF71FEA0FFB1F20812AB92BB9A80FB91FA60FB71F11965A
:201340002C914650504081E090E002C0880F991F4A95E2F750C0C42FD0E0A091C405B09122
:20136000C5059701220F331F423120F5BE01660F771F2E0D3F1D93E0220F331F9A95E1F7A2
:20138000F901E60FF71FEA0FFB1F40812A9781E090E002C0880F991FCA95E2F7842B8AB9A7
:2013A0004BB9A20FB31FA60FB71F11968C9184B985B927C0AE01440F551FC9018E0D9F1D5E
:2013C00003E0880F991F0A95E1F7FC01E40FF51FEA0FFB1F20812AB92BB9A80FB91FA40FA3
:2013E000B51F11962C91629781E090E002C0880F991FCA95E2F7822B84B925B902C01AB846
:2014000014B88B2D8F5F8093EF05883038F01092EF058091F0058F5F8093F0058091F005DB
:20142000893190F11092F0058091C3058823B1F08091C20580FF12C01092C3052091C405A8
:201440003091C5058091C6059091C7059093C5058093C4053093C7052093C6058091C80584
:20146000882391F01092C805D092CE05C092CD058091CB059091CC059093CA058093C905D2
:20148000D092CC05C092CB05FF91EF91DF91CF91BF91AF919F918F917F916F915F914F9157
:2014A0003F912F911F910F91FF90EF90DF90CF90BF900F900FBE0F901F9018952F923F9228
:2014C0004F925F926F927F928F929F92AF92BF92DF92EF92FF920F93DF93CF93CDB7DEB732
:2014E00060970FB6F894DEBF0FBECDBF90E0A0E0B0E0BC01CD010E947C2820E030E04EEF10
:2015000052E40E94E3279B01AC010E9432291B012C0180EF898331E0E32EF12C5E010894A5
:20152000A11CB11CB701882777FD8095982F0E947E2821EF3BE840EB50E40E94322920E093
:2015400030E040EC5FE30E9495299B01AC01C5018E0D9F1D9A878987CA01B90120E030E081
:2015600040E751E40E947B279B01AC0160E070E08FE793E40E947A270E945028E985FA85BB
:2015800060830894E11CF11CF8E0EF16F10451F68091F1058823C1F4D501E091C905F091AC
:2015A000CA059E01275F3F4F8D9180838091880280873196A217B307B9F706C061E070E0A5
:2015C00080E090E00E94C2218091C8058823B1F76090CB057090CC054E010894811C911CBF
:2015E000530100E0CE010896988B8F87F401D1904F016D2D609570E0882777FD8095982F8D
:201600000E947E289B01AC01C201B1010E9432296B877C878D879E876091890270E088271E
:2016200077FD8095982F0E947E289B01AC016B857C858D859E850E9432299B01AC0160E01D
:2016400070E08FE793E40E947A270E945028F501608320918A0220876D19060F0894A11C3F
:20166000B11C8F8598898816990609F0BFCF0095F301078380918802878781E08093C805A7
:2016800060960FB6F894DEBF0FBECDBFCF91DF910F91FF90EF90DF90BF90AF909F908F9044
:2016A0007F906F905F904F903F902F900895982F8091C20580FF10C081E08093C30599233D
:2016C00059F08091C305882339F061E070E080E090E00E94C221F5CF0895909170009E7F1F
:2016E000909370009091B0009C7F9093B0009091B100977F9093B1009091B6009F7D9093C6
:20170000B600909170009D7F909370009091B10093609093B1009091B1009B7F9093B1007A
:2017200026E030E030930105209300058093C2051092C30522E035E03093C5052093C405AE
:2017400080FF07C082EC95E09093C7058093C60504C03093C7052093C6058FEC95E09093AF
:20176000CA058093C90540969093CC058093CB051092C8058FE70E945E0A80E090E00E94AB
:20178000F90880E00E94570B80910005909101058093B200809170008160809370008091EC
:2017A000C20580FD07C00AC061E070E080E090E00E94C2218091C3058823B1F781E08093CE
:2017C000F10508952F923F925F926F927F928F929F92AF92BF92CF92DF92EF92FF920F9377
:2017E0001F93DF93CF9300D000D00F92CDB7DEB73C01962E19821A821B821C821D82862F42
:2018000061E00E946022892D60E00E949F2262E170E080E090E00E94C221892D61E00E9489
:201820009F2288E290E00E941B22892D60E00E94602200E117E205C001151105A1F1015066
:201840001040892D0E94F322892BB1F300E117E205C00115110539F101501040892D0E9485
:20186000F3220197B1F306C001151105E1F0015010400AC027E0822E5524AA24BB2491E09B
:20188000292E312C00E117E2892D0E94F322892B59F30E949C216B017C0100E117E208C063
:2018A0000115110519F42EEF3FEF41C001501040892D0E94F322019799F30E949C216C198D
:2018C0007D098E099F09693271058105910580F0E1E0F0E0EC0FFD1FE50DF11D9101082C38
:2018E00002C0220F331F0A94E2F78081822B8083882021F4539487E0882E01C08A9408943F
:20190000A11CB11C88E2A816B10409F0BBCF8981F301808311829B8192831382980F8D81CE
:20192000891719F420E030E002C02FEF3FEFC9010F900F900F900F900F90CF91DF911F9177
:201940000F91FF90EF90DF90CF90BF90AF909F908F907F906F905F903F902F900895EF9286
:20196000FF921F93CF93DF9310E060E050E070E0A0E0B0E0C1E0D0E046C08081882349F054
:201980007E01022E02C0EE0CFF1C0A94E2F74E0D1F5F2F5F3F4F76962A30310571F703C08E
:2019A000569566954695533028F0633018F04330B8F705C0473019F4643051F40BC04E30A3
:2019C00029F46230D1F45430C1F416C0473029F4613099F4523089F40FC0443029F46230E1
:2019E00061F45E3051F408C0423039F4613011F0643019F4573009F47F5F1196562F642F04
:201A0000AB30B10549F0FD01EE0FFF1FEE5EF94F40E020E030E0B1CF153011F090E006C023
:201A200090E0772309F491E081E09827892FDF91CF911F91FF90EF9008959F92AF92BF9268
:201A4000CF92DF92EF92FF920F931F93CF93DF93EE24FF2411E06FEFCBE0D0E037E0932EC3
:201A600031C1B52E062F5F3F11F489E005C05A3014F080E001C0852F67FF02C02AE005C031
:201A80006B3014F020E001C0262F40E0332727FD3095992787FD90958C9FF0018D9FF00D80
:201AA0009C9FF00D1124E20FF31FEE0FFF1FEF5EF94F808118160CF441E067FF02C08AE024
:201AC00005C06B3014F080E001C0862F992787FD9095CC9EF001CD9EF00DDC9EF00D1124F4
:201AE000E80FF91FEE0FFF1FEF5EF94F808118160CF44F5FA72E7A3014F4872F01C080E0EC
:201B000067FF02C00AE003C06B300CF000E0202F332727FD3095992787FD90958C9FF00162
:201B20008D9FF00D9C9FF00D1124E20FF31FEE0FFF1FEF5EF94F808118160CF44F5F5F3FE1
:201B400011F489E005C05A3014F080E001C0852F992787FD90958C9FF0018D9FF00D9C9F06
:201B6000F00D1124EE0DFF1DEE0FFF1FEF5EF94F808118160CF44F5F7A3014F4872F01C066
:201B800080E0992787FD90958C9FF0018D9FF00D9C9FF00D1124EE0DFF1DEE0FFF1FEF5E4B
:201BA000F94F808118160CF44F5F012F5F3F19F429E0B22E03C05A300CF0BB241B3014F4C1
:201BC000212F01C020E0332727FD30958B2D992787FD90958C9FF0018D9FF00D9C9FF00D13
:201BE0001124E20FF31FEE0FFF1FEF5EF94F808118160CF44F5F1B3014F4812F01C080E0FC
:201C0000992787FD9095CC9EF001CD9EF00DDC9EF00D1124E80FF91FEE0FFF1FEF5EF94F2D
:201C2000808118160CF44F5F7A300CF0AA241B300CF000E0202F332727FD30958A2D992723
:201C400087FD90958C9FF0018D9FF00D9C9FF00D1124E20FF31FEE0FFF1FEF5EF94F808175
:201C600018160CF44F5F8C91882399F042301CF411961C921197842F8250823038F48C9138
:201C800084300CF0815011968C931197443054F006C0433021F411969C92119703C0119668
:201CA0001C9211970894C11CD11C7F5F5F5F56967B3009F0D6CE0894E11CF11C1F5F6F5FA6
:201CC0001C3051F0D701AA0FBB1FAF5EB94FCC24DD2471E05FEFC5CEDF91CF911F910F91B4
:201CE000FF90EF90DF90CF90BF90AF909F90089586EF95E060E10E94141F0895EF92FF92FF
:201D00000F931F93DF93CF93CDB7DEB72C970FB6F894DEBF0FBECDBF86EF95E00E946E205E
:201D200086EF95E069E076E00E944D2086EF95E06EEB40E00E9418208E010F5F1F4FBAE0C9
:201D4000EB2EF12CEC0EFD1E86EF95E00E94C11FF80181938F01EE15FF05B1F79A8180E005
:201D60002981FC01E20FF11DF7FF03C0F095E195FF4FCF0164E070E00E94272B9B01BF0107
:201D8000660F771F6E0F7F1F660F771F620F731F882777FD8095982F0E947E2820E030E0B8
:201DA00048EC52E40E94E3272C960FB6F894DEBF0FBECDBFCF91DF911F910F91FF90EF90D6
:201DC000089589E096E067E00E946A1F90911006891781F486EF95E00E946E2086EF95E0C5
:201DE00069E076E00E944D2086EF95E064E441E00E9418200895AF92BF92CF92DF92EF9286
:201E0000FF920F931F93CF93DF935B016A01E22E803211F484E04CC0E82FF0E02091E90288
:201E20003091EA02E217F30708F441C08091EB029091EC028E179F0708F439C0E21BF30BBD
:201E4000EE0FFF1FE157FD4F0190F081E02D949131968491EF012196F92E682F00E010E09E
:201E600021C0C5018F0D911D0A9770F4C601860F911D8B30910544F497FD06C06C0D8F2D4A
:201E80008A0D4E2D0E9488088F2D90E00817190708F48C01FE0194912196FE018491219664
:201EA000682FF92E6930E9F6802F8E5F01C080E0DF91CF911F910F91FF90EF90DF90CF9033
:201EC000BF90AF900895EF92FF920F931F93DF93CF930F92CDB7DEB700E010E014C0892F87
:201EE000602FF701408199830E94880899819F5F26E130E0E20EF31E9A3089F70F5F1F4FF6
:201F00000B30110549F07801EE0CFF1C81E196E0E80EF91E90E0E3CF0F90CF91DF911F9183
:201F20000F91FF90EF9008952F923F924F925F926F927F928F929F92AF92BF92DF92EF920A
:201F4000FF920F931F93CF93DF935C01EB011A018AEC97E060E071E00E946E268AEC97E0C3
:201F6000B5010E941F27DD2410E00EC01F5FF501E10FF11D808160E070E040E050E020E0B1
:201F800030E00E94FB0ED80E212F30E0F501E20FF31F8081882351F705E010E09BEFE92EDD
:201FA0009FEFF92EED18F10829013E01882477FC8094982C20C080E090E00E94F908D02EBD
:201FC000C0E0D0E00FC0F501EC0FFD1F6D2D772767FD70958081A10127E030E00E94FB0ECF
:201FE000D80E2196C415D50574F3C401B3010E94C221015010400E151F05ECF6DF91CF9192
:202000001F910F91FF90EF90DF90BF90AF909F908F907F906F905F904F903F902F90089510
:20202000CF92DF92EF92FF921F9330E010E0C82EDD24EE24FF2413C020818181281718F41D
:202040002F5F20831F5F20818181821718F4215020831F5F7696E417F50771F73F5F3B3083
:202060006CF4832F992787FD9095880F991FFC01EF5EF94FAC014351594FDECF0E94630F5A
:20208000C701B6010E94C221112319F030E010E0E8CF1F91FF90EF90DF90CF9008952F925E
:2020A0003F924F925F927F928F929F92AF92BF92CF92DF92EF92FF920F93DF93CF9300D05E
:2020C00000D0CDB7DEB769837A838B839C8349015A0164E170E080E090E020E530E040E0C2
:2020E00050E00E945427D62E62E070E080E090E024E130E040E050E00E945427762E8AEC91
:2021000097E069E071E00E941F278AEC97E06FE071E00E941F278AEC97E06D2D4AE050E070
:202120000E94DF258AEC97E06FE171E00E946E268AEC97E0672D4AE050E00E94F12500E0C2
:2021400089819A81AB81BC81880E991EAA1EBB1EBCED4B2E512CCD2CDD24EE24FF240E9493
:202160008E2186169706A806B90608F40F5F40E050E060E070E00DC0808183837696E217E7
:20218000F307D1F74F5F5F4F625070404B30510559F0FA01EE0FFF1FEF5EF94F9201261B26
:2021A000370B2F5E394FE8CFE2E12E2EE6E03E2E0C30D8F464E670E080E090E00E94322753
:2021C000C616D706E806F9066CF461E070E080E090E027E030E040E050E00E945427D10142
:2021E0006C9307C0F101108204C00E3678F4D1011C92E6E1F0E02E0E3F1EFEEE2F16F6E06A
:202200003F06B1F6872D0E941010A9CF0F900F900F900F90CF91DF910F91FF90EF90DF907B
:20222000CF90BF90AF909F908F907F905F904F903F902F9008959F92AF92BF92CF92DF92C6
:20224000EF92FF920F931F93CF93DF9323E037E080E090E00DC0108211827696E217F30769
:20226000D1F701969F012E5F3F4F8C30910531F0FC01EE0FFF1FEF5EF94FEDCF68E270E0CE
:2022800080E090E020E530E040E050E00E9454273EEEA32E36E0B32E00E010E0C62EDD2433
:2022A000EE24FF2427E0922E2BC064E670E080E090E00E943227C616D706E806F90634F404
:2022C00098828AEC97E061E271E004C08AEC97E063E271E00E946E266696CA15DB0529F70B
:2022E0008AEC97E065E271E00E941F270F5F1F4F92E0A92EB12CAC0EBD1E0B30110531F068
:20230000E801CC0FDD1FCE5ED94FCFCFDF91CF911F910F91FF90EF90DF90CF90BF90AF9081
:202320009F900895EF92FF920F931F93DF93CF9300D0CDB7DEB77B018C0180E090E00E9433
:20234000F90880915B0790E0BE016F5F7F4F4AE050E00E947C0380915B078A3020F4898178
:2023600065E070E01EC08A508A3078F4898161E070E040E050E027E030E00E94FB0E682FA6
:2023800070E06F5F7F4F8A810CC0898160E070E040E050E027E030E00E94FB0E682F8A812C
:2023A00070E040E050E027E030E00E94FB0E80915C0790E0BE016F5F7F4F4AE050E00E9480
:2023C0007C0380915C078A3060F480E360E070E046E050E027E030E00E94FB0E682F898150
:2023E0001DC08A508A3078F4898161E070E046E050E027E030E00E94FB0E682F70E06F5F98
:202400007F4F8A810CC0898160E070E046E050E027E030E00E94FB0E682F8A8170E046E04D
:2024200050E027E030E00E94FB0EC801B7010E94C2210F900F90CF91DF911F910F91FF90B7
:20244000EF9008950F931F9304E617E0C8010E94681BC8010E94271A80935C07C8010E94B0
:202460000A1A80935B072DB73EB7285030400FB6F8943EBF0FBE2DBFEDB7FEB731962FEEBE
:2024800032E0ADB7BEB712963C932E93119724E331E0338322838483158280915C078683E3
:2024A00017820E949D032DB73EB7285F3F4F0FB6F8943EBF0FBE2DBF1F910F910895EF92DE
:2024C000FF920F931F93DF93CF9300D0CDB7DEB780915B07883120F480915C078C3310F0E7
:2024E0000E9422120E948E2120915F073091600740916107509162076217730784079507D9
:20250000A1F00E948E2120915F07309160074091610750916207621B730B840B950B6C522F
:20252000714080409040C8F4BAC0E0905F07F090600700916107109162070E948E21E61A13
:20254000F70A080B190B8CE2E81681E0F80680E0080780E0180708F4A2C00E948E216093E8
:202560005F077093600780936107909362078091EE02882351F080915B078F5F80935B07C1
:20258000883108F110925B071EC080915D07882359F080915C078F5F80935C078C3308F4AB
:2025A00058C010925C0755C090915E07992341F18091ED028F5F8093ED02823308F18FE167
:2025C0008093ED021DC080E090E00E94F90880915B0790E0BE016F5F7F4F4AE050E00E946F
:2025E0007C03898160E070E040E050E027E030E00E94FB0E682F8A8170E040E050E045C069
:20260000992309F44CC087E090E00E94F9088091ED028E5190E0BE016F5F7F4F4AE050E077
:202620000E947C03898160E070E043E050E020E030E00E94FB0E682F8A8170E043E050E08C
:2026400020E030E00E94FB0E8091ED020E945E0A20C080E090E00E94F90880915C0790E07E
:20266000BE016F5F7F4F4AE050E00E947C03898160E070E046E050E027E030E00E94FB0ED2
:20268000682F8A8170E046E050E027E030E00E94FB0E6AE070E080E090E00E94C2210F90A2
:2026A0000F90CF91DF911F910F91FF90EF900895EF92FF920F931F93DF93CF9300D0CDB722
:2026C000DEB780915B07883120F480915C078C3310F00E9422120E948E2120915F073091F3
:2026E000600740916107509162076217730784079507A1F00E948E2120915F0730916007B5
:202700004091610750916207621B730B840B950B6C52714080409040C8F4DCC0E0905F07DF
:20272000F090600700916107109162070E948E21E61AF70A080B190B8CE2E81681E0F8065B
:2027400080E0080780E0180708F4C4C00E948E2160935F07709360078093610790936207F0
:2027600081E0809363078091EE02813029F41092EE0280935D0713C080915D07813039F47D
:202780001092EE0210925D0780935E070AC080915E07813031F48093EE0210925D07109268
:2027A0005E078AEC97E06DE371E00E946E268AEC97E06091EE024AE050E00E94F1258AEC9A
:2027C00097E061E471E00E946E268AEC97E060915D074AE050E00E94F1258AEC97E065E42C
:2027E00071E00E946E268AEC97E060915E074AE050E00E94F1258091EE028823E9F080E018
:2028000090E00E94F90880915B0790E0BE016F5F7F4F4AE050E00E947C03898160E070E052
:2028200040E050E027E030E00E94FB0E682F8A8170E040E050E020C080915D078823F9F05B
:2028400080E090E00E94F90880915C0790E0BE016F5F7F4F4AE050E00E947C03898160E001
:2028600070E046E050E027E030E00E94FB0E682F8A8170E046E050E027E030E023C080919D
:202880005E07882339F187E090E00E94F9088091ED028E5190E0BE016F5F7F4F4AE050E080
:2028A0000E947C03898160E070E043E050E020E030E00E94FB0E682F8A8170E043E050E00A
:2028C00020E030E00E94FB0E6AE070E080E090E00E94C2210F900F90CF91DF911F910F91F0
:2028E000FF90EF9008950F931F9304E617E0C8010E94B61AC8010E94201B60915C07C801FA
:2029000070E00E94EF1A60915B07C80170E00E949A1AC80161E070E00E948C1AC80161E04E
:2029200070E00E947E1AC80161E070E00E94701AC80169E070E00E94641AC8010E94281B57
:20294000C8010E94181B1F910F9108952F923F924F925F926F927F928F929F92BF92CF9272
:20296000DF92EF92FF920F931F93DF93CF9300D000D00F92CDB7DEB78AEC97E069E071E0CB
:202980000E941F278AEC97E069E471E00E941F2780E090E04FEF0FC040833B96E217F30778
:2029A000D9F701968B30910531F42EEE36E080E090E047E013C0FC01E351F94F9C01255AA9
:2029C000384FEACF40837696E217F307D9F701969F012E5F3F4F8B30910531F0FC01EE0F67
:2029E000FF1FEE5EF94FEECF8EE10E9410106CE271E080E090E00E94C2212EEE36E080E0B1
:202A000090E00CC010827696E217F307D9F701969F012E5F3F4F8B30910531F0FC01EE0F5B
:202A2000FF1FEE5EF94FEECF8EE10E9410106CE271E080E090E00E94C2210E941B118EE1C5
:202A40000E94101066E970E080E090E00E94C2210E948E212B013C01BB2488249924CC24CE
:202A6000DD24EE24FF241E010894211C311C02C0882499240E948E21611571058105910557
:202A800021F00E948E218B0106C00E948E2100271127061B170B0E948E21611571058105CC
:202AA000910529F00E948E219B01AC0109C00E948E2122273327A901261B370B480B590B2C
:202AC000D301C20188579C4EAF4FBF4F281739074A075B0708F4D1C021E0B21659F400E0D5
:202AE00010E00E94630F0F5F1F4F81E0043F1807C1F701C266E970E080E090E00E94C221C4
:202B000080E090E00E94F908F8940E94E10E78940E9422128AEC97E060915B074AE050E0A9
:202B20000E94DF258AEC97E067E571E00E946E268AEC97E060915C074AE050E00E94DF25EE
:202B40008AEC97E069E571E00E946E268AEC97E0B6014AE050E00E944F2668EE73E080E095
:202B600090E00E9492119CE3E916F1040CF47AC080E090E00E94F908F8940E947E0E7B014A
:202B80008C01789420E030E048E452E40E94DF2788230CF057C0C801B70120E030E040E013
:202BA00050E40E942E2918160CF04CC0C801B70126E636E646EE5FE30E94322920E030E086
:202BC00040E052E40E947B274CEF21E081010E94FA028AEC97E061E671E00E946E268AECCE
:202BE00097E0B1010E941F2700D000D000D0EDB7FEB7319685EF92E0ADB7BEB712969C939E
:202C00008E931197A8E6B1E0B383A283358224820E949D038DB79EB706960FB6F8949EBFEF
:202C20000FBE8DBF66E070E080E090E00E9432279B01AC0185EF92E064E670E0A9010E9405
:202C4000940F0EC08AEC97E06CE671E00E941F278AEC97E0B801A70122E030E00E940C2756
:202C6000EE24FF240E948E212B013C018EE00E94F322892B09F0FECE3EC181149104E1F4C9
:202C80004DEE56E020E030E00EC080818C9376961B96E417F507C9F72F5F3F4F4E5F5F4FDA
:202CA0002B30310549F0F901EE0FFF1FEF5EF94FD901A351B94FE9CF0E941D0D4DEE56E0D5
:202CC00020E030E012C090818181981709F046C07696E417F507B9F72F5F3F4FAF014E5F25
:202CE0005F4F2B30310509F4FEC0F901EE0FFF1FEF5EF94FE8CF8AEC97E069E771E00E9449
:202D00006E268AEC97E0B6014AE050E00E944F264EEE56E090E020E030E00FC080818111B6
:202D20009F5F7696E417F507C9F72F5F3F4FAF014E5F5F4F2B30310531F0F901EE0FFF1FE4
:202D4000EE5EF94FEBCF992339F464EF71E080E090E00E94C221CFC0BB24B3944EEE56E01C
:202D600020E030E012C090818C91981731F576961B96E417F507B9F72F5F3F4FAF014E5F91
:202D80005F4F2B30310509F4B2C0F901EE0FFF1FEE5EF94FD901A351B94FE5CF8AEC97E065
:202DA0006FE971E00E946E268AEC97E0B6014AE050E00E944F26BB24B3940E94AF0C8130EB
:202DC00089F4BB2079F48AEC97E066EC71E00E946E268AEC97E0B6014AE050E00E944F2653
:202DE000BB24B39498E0C91697E0D9068CF0BB2079F48AEC97E06FEE71E00E946E268AECF5
:202E000097E0B6014AE050E00E944F26BB24B39482E30E9410100E948E2161157105810503
:202E2000910529F00E948E219B01AC0109C00E948E2122273327A901261B370B480B590BA8
:202E4000C801A0E0B0E0821B930BA40BB50B87509E4FAF4FBF4FB9F00E948E216115710539
:202E60008105910521F00E948E219B0106C00E948E2122273327261B370BB80167507E4FBE
:202E8000621B730B17C00E948E21611571058105910521F00E948E219B0106C00E948E21F2
:202EA00022273327261B370B67E07EEF601B710B620F731F81E0643F780710F06AE570E01C
:202EC00080E090E00E94C2210894811C911C0894C11CD11C0894E11CF11C94E18916910402
:202EE0000CF0C6CDC7CDBB2009F038CF04CFBB2009F063CF53CF0F900F900F900F900F90BE
:202F0000CF91DF911F910F91FF90EF90DF90CF90BF909F908F907F906F905F904F903F906D
:202F20002F9008958CE697E060E070E00E94B41B982F8F51833118F49093ED02089581E3D1
:202F40008093ED0208958CE697E060E070E00E94B41B4091ED02841759F08CE697E060E01B
:202F600070E00E94BB1B8AEC97E060E272E004C08AEC97E067E272E00E941F2708958F9216
:202F80009F92AF92BF92CF92DF92EF92FF920F931F93DF93CF9300D000D00F92CDB7DEB708
:202FA0008EE00E94F322892B11F40E94581380916307882349F08FE00E94F322892B21F4D8
:202FC0000E945F120E94731480915F0790916007A0916107B09162070097A105B10509F483
:202FE00091C10E948E2120915F07309160074091610750916207621B730B840B950B685882
:2030000073418040904008F07DC186C1109263070E94221223E037E080E090E00DC01082C4
:2030200011827696E217F307D1F701969F012E5F3F4F8C30910531F0FC01EE0FFF1FEF5E0C
:20304000F94FEDCF0E94A31767C1108211827696E217F307D1F701969F012E5F3F4F8B30EF
:20306000910531F0FC01EE0FFF1FEF5EF94FEDCF0E948E217B018C0164E070E080E090E072
:203080000E943227611571058105910541F097FD11C0643071058105910564F409C0C80187
:2030A000B70128E833E140E050E00E944F1002C00E94A6148AEC97E069E071E00E941F2756
:2030C0008AEC97E060E372E00E941F278AEC97E06DE372E00E941F270E94E10E8AEC97E091
:2030E0006EE472E00E941F270E94221268EB7BE080E090E00E94921180E090E00E94F90838
:203100008FE70E945E0A62E370E080E090E00E94C2210E947E0E7B018C0182EF95E061E1E6
:2031200070E00E94E20B4C018091ED020E945E0AC801B70120E030E048E452E40E94DF27BE
:2031400088230CF0D0C0C801B70120E030E040E050E40E942E2918160CF0C5C0C801B7012A
:2031600026E636E646EE5FE30E94322920E030E040E052E40E947B274CEF21E05E010894D3
:20318000A11CB11C85010E94FA028AEC97E060915B074AE050E00E94DF258AEC97E067E508
:2031A00071E00E946E268AEC97E060915C074AE050E00E94F1258AEC97E061E671E00E940E
:2031C0006E268AEC97E0B5010E941F2785EFC82E82E0D82E8114910409F041C0E090F20573
:2031E000F090F3050091F4051091F5058AEC97E06CE572E00E946E268AEC97E0B7014AE09D
:2032000050E00E944F268AEC97E061E672E00E946E268AEC97E0B8014AE050E00E944F2694
:203220008DB79EB708970FB6F8949EBF0FBE8DBFEDB7FEB73196ADB7BEB71296DC92CE9220
:2032400011978CE692E093838283B582A482F782E6820E949D038DB79EB7089630C08AECAA
:2032600097E06CE572E00E946E268AEC97E064E772E00E941F278AEC97E068E772E00E945C
:203280006E268AEC97E0B4014AE050E00E944F2600D000D000D0EDB7FEB73196ADB7BEB71E
:2032A0001296DC92CE92119788E691E093838283B582A4820E949D038DB79EB706960FB65D
:2032C000F8949EBF0FBE8DBF66E070E080E090E00E9432279B01AC01C60164E670E0A90137
:2032E0000E94940F19C08AEC97E06CE671E00E946E268AEC97E0B801A70122E030E00E94E8
:203300000C270AC080916307882309F07FCE2DEE36E080E090E0A6CE0F900F900F900F9053
:203320000F90CF91DF911F910F91FF90EF90DF90CF90BF90AF909F908F9008958EE062E0C9
:203340000E9460228FE062E00E94602281E160E00E9460228AEC97E040E052EC61E070E0D2
:203360000E94AE2386EF95E00E946E2086EF95E069E076E00E94A820882321F486EF95E023
:203380000E94581F0E94921782E00E946D0B8091ED020E945E0A83E897E00E94A11C84E698
:2033A00097E00E94681B84E697E00E943E1A0E9472270E94221284E697E00E94181B089532
:2033C000FC014281842F90E046FF08C0F5E096958795FA95E1F7582F51701AC0842F8F73A3
:2033E00050E090E0E4E095958795EA95E1F79C0173E0220F331F7A95E1F7880F991F280FEC
:20340000391F4F70420F842F90E00C970CF051E0852F0895FC018281482F4F7086FF02C083
:203420008F7101C08F7390E024E0959587952A95E1F79C01B3E0220F331FBA95E1F7880F07
:20344000991F280F391F842F820F90E00895FC018181282F30E0E4E035952795EA95E1F7CD
:20346000A90173E0440F551F7A95E1F7220F331F420F531F8F70840F90E00895FC018081BE
:20348000282F2F7730E0B4E035952795BA95E1F7A901A3E0440F551FAA95E1F7220F331F50
:2034A000420F531F8F70840F90E00895262F862F6AE00E941B2B382F3295307F822F0E943E
:2034C0001B2B832F890F0895CF93DF93EC016436710518F40E94561A8E83DF91CF91089552
:2034E000CF93DF93EC01CB0101970C9720F4CE010E94561A8D83DF91CF910895CF93DF93BE
:20350000EC01CB0101974F9720F4CE010E94561A8C83DF91CF910895CF93DF93EC01CB0176
:203520000197079720F4CE010E94561A8B83DF91CF9108951F93CF93DF93EC011A8116FFC2
:2035400009C0CB0101970C9768F4CE010E94561A107606C06931710528F40E94561A107450
:20356000182B1A83DF91CF911F910895FF920F931F93CF93DF938C01FC01F280F6FE29C0BC
:203580008F2D8F7190E064E0959587956A95E1F79C0153E0220F331F5A95E1F7880F991F35
:2035A000280F391F8F2D8F70820FC82FD0E0CC30D10511F4C0E0D0E0C8010E94E01981116C
:2035C0002C96FFEBFF22F801F282C801BE010E949A1ADF91CF911F910F91FF900895CF9325
:2035E000DF93EC016C33710518F40E94561A8983DF91CF9108950F931F93162F042F603460
:20360000A0F483E897E068E670E00E94C71B83E897E0612F0E94491C83E897E0602F0E9486
:20362000491C83E897E00E948C1C1F910F910895FC0140814F77408360E00E94FB1A089531
:20364000FC0140814068408360E00E94FB1A0895EF92FF920F931F937C0160E040E80E94C0
:20366000FB1A03E817E0C80168E670E00E94C71BC80161E00E94491CC801F70161810E9412
:20368000491CC801F70162810E94491CC801F70163810E94491CC801F70164810E94491CC1
:2036A000C801F70165810E94491CC801F70166810E94491CC8010E948C1CC70160E0F7019A
:2036C00040810E94FB1A1F910F91FF90EF900895EF92FF920F931F937C0103E817E0C801E9
:2036E00068E670E00E94C71BC80160E00E94491CC8010E948C1CC80168E670E048E050E0C6
:203700000E949D1CC8010E94DA1BF7018083C8010E94DA1BF7018183C8010E94DA1BF7013F
:203720008283C8010E94DA1BF7018383C8010E94DA1BF7018483C8010E94DA1BF701858367
:20374000C8010E94DA1BF7018683C8010E94DA1BF70187831F910F91FF90EF90089583E840
:2037600097E00E94A11C0895F999FECF72BD61BDF89A80B50895F999FECF1FBA72BD61BD41
:2037800040BD0FB6F894FA9AF99A0FBE089581E08093820760937707109280071092810789
:2037A00008952091760730E080917507281B3109C90108954091750780917607481718F07B
:2037C0002FEF3FEF0AC0E42FF0E0E359F84F8081282F30E04F5F40937507C9010895E09130
:2037E000750780917607E81718F0EFEFFFEF06C0F0E0E359F84F8081E82FF0E0CF0108957E
:203800000895109286071092850788EE93E0A0E0B0E08093870790938807A0938907B0935C
:203820008A0780EE93E090938407809383070895CF92DF92EF92FF920F931F93CF93DF9322
:203840007C016B018A01809182078823A1F0C0E0D0E00DC0D701ED91FC91D601AC0FBD1FB0
:203860000190F081E02DC7016C9109952196C017D10780F304C0CB01642F0E944A1DC80108
:20388000DF91CF911F910F91FF90EF90DF90CF900895DF93CF930F92CDB7DEB7FC01698318
:2038A000809182078823C9F080918107883038F081E090E09383828320E030E015C08091AF
:2038C0008007E82FF0E0E858F84F998190838F5F809380078093810705C0CE01019661E037
:2038E0000E944A1D21E030E0C9010F90CF91DF9108950F93062F8091770768E777E04091FB
:20390000810721E00E94F51C1092800710928107109282070F91089561E00E94791C08959B
:20392000493008F048E0862F6DE677E00E94AC1C1092750780937607089521E00E94901C8B
:203940000895109275071092760710928007109281070E94F61E0895382F493010F040E0E7
:2039600042C080918F078823E1F791E090938F07209391078FEF8093B40710929F07415081
:203980004093A0074F5F9093900780919007330F832B8093900780919207813041F41092D1
:2039A0009207809190078093BB0085EC01C085EE8093BC0080918F078130E1F380919F07A1
:2039C000841710F440919F0720E030E00AC0FB01E20FF31FD901A956B84F8C9180832F5F6A
:2039E0003F4F2417A0F3842F08950F931F93582F122F493010F081E04AC080918F078823C9
:203A0000E1F782E080938F07009391078FEF8093B40710929F074093A007A7E9B7E0FB0167
:203A200002C081918D938E2F861B8417D0F31092900780919007550F852B80939007809126
:203A40009207813041F410929207809190078093BB0085EC01C085EE8093BC00112321F07D
:203A600080918F078230E1F38091B4078F3F11F480E00DC08091B407803211F482E007C0A1
:203A80008091B407803311F084E001C083E01F910F910895482F693010F081E00895809112
:203AA0008F07843011F082E008956093AA07A1EAB7E0842F9C01F90102C081918D938E2FFB
:203AC000841B8617D0F380E008951F920F920FB60F9211242F933F934F935F936F937F9381
:203AE0008F939F93AF93BF93EF93FF938091B90090E0887F90708036910509F4F2C08136D7
:203B00009105CCF58832910509F47BC089329105B4F48031910509F46FC0813191053CF4E2
:203B2000009709F447C1089709F04FC165C08831910509F466C0809709F047C182C080349C
:203B4000910509F4A4C08134910544F48033910509F482C0C89709F038C189C0803591057E
:203B600009F489C08835910509F496C08834910509F02BC1AEC08839910509F413C18939CA
:203B80009105ECF48837910509F4ABC0893791054CF48836910509F4A4C08037910509F061
:203BA00014C19FC08838910509F4FCC08039910509F49DC08038910509F007C198C0803BF7
:203BC000910509F4C6C0813B91054CF4803A910509F49FC0883A910509F0F7C0BAC0803C50
:203BE000910509F4E3C0883C910509F4DFC0883B910509F0EAC0C2C0809190078093BB00A5
:203C0000CFC090919F078091A007981768F490919F07E92FF0E0E956F84F80818093BB0087
:203C20009F5F90939F07BCC080919107882309F44BC085ED8093BC008091BC0084FDFCCF8B
:203C4000C2C080E28093B40785ED8093BC008091BC0084FDFCCFB7C080E38093B40785ED3E
:203C60008093BC008091BC0084FDFCCFACC088E38093B4079BC080919F079091BB00E82FB2
:203C8000F0E0E956F84F90838F5F80939F0790919F078091A00782C080919F079091BB00C0
:203CA000E82FF0E0E956F84F90838F5F80939F0780919107882341F085ED8093BC00809106
:203CC000BC0084FDFCCF7FC081E08093920784EA6EC085ED8093BC008091BC0084FDFCCF9A
:203CE00072C083E080938F071092B30759C08091B307883008F056C08091B3079091BB00D9
:203D0000E82FF0E0E555F84F90838F5F8093B30747C08091B307883030F4E091B307F0E0C4
:203D2000E555F84F108285ED8093BC008091BC0084FDFCCF10928F076091B307E091950726
:203D4000F09196078BEA97E070E009951092B3072DC084E080938F071092A9071092AA0770
:203D6000E0919307F091940709958091AA07882329F481E08093AA071092A1079091A907B4
:203D8000E92FF0E0EF55F84F80818093BB009F5F9093A9079091A9078091AA07981710F4CA
:203DA00085EC01C085E88093BC000FC085EC8093BC0009C01092B40785ED8093BC0080910E
:203DC000BC0084FDFCCF10928F07FF91EF91BF91AF919F918F917F916F915F914F913F9103
:203DE0002F910F900FBE0F901F90189510928F0781E0809391071092920782E161E00E94D7
:203E00009F2283E161E00E949F22E9EBF0E080818E7F808380818D7F808388E48093B800DD
:203E200085E48093BC000895DC011A966C931A97462F50E0CA018E599B4FFC0124911B96CC
:203E40002C931B974A585B4FFA0184911C968C931C9730E0220F331FF901E25BFB4F8591E7
:203E600094911E969C938E931D97F901E85AFB4F8591949150969C938E931F97F901EC5B77
:203E8000FB4F8591949152969C938E9351978FEF18968C93189719961C92199787E0FD0111
:203EA000E80FF11D1082882311F08150F8CF0895DC018FEF18968C93189719961C921997A6
:203EC00087E0FD01E80FF11D1082882311F08150F8CF0895DC0120E080E00AC0E82FF0E017
:203EE0008D9190E0E827F927E451FC4F80812F5F2617A0F30895FF920F931F938C01DC013A
:203F00005196ED91FC91529780811C969C911C97892B80831D96ED91FC911E9790811C9646
:203F20008C9180958923808381E090E00E941B22D8015196ED91FC91529790811C968C915C
:203F400080958923808385E090E00E941B22D8011F96ED91FC9150972081FF2430E01C96E3
:203F60008C9190E028233923232B11F0FF24F39482E390E00E941B228F2D1F910F91FF90C5
:203F80000895EF92FF920F931F93CF93DF937C0101E010E0C0E0D0E0C7010E947B1F811116
:203FA000102B000F2196C830D105B1F7812FDF91CF911F910F91FF90EF900895EF92FF92FD
:203FC0000F931F937C01062FDC015196ED91FC91529780811C969C911C97892B80831D9626
:203FE000ED91FC911E9790811C968C91809589238083017010E0F801E251FB4F808190E015
:204000000E941B22D7011D96ED91FC911E9780811C969C91892B808304511B4FF801808126
:2040200090E00E941B221F910F91FF90EF900895CF92DF92EF92FF920F931F93CF93DF932A
:204040008C01E42EFF24F394C0E0D0E0C62EDD2460E08F2D90E08C219D21892B09F061E00D
:20406000C8010E94DE1FFF0C2196C830D10581F7EE2051F4F801828560E00E946022F80120
:20408000828560E00E949F22DF91CF911F910F91FF90EF90DF90CF900895EF92FF920F9329
:2040A0001F93CF93DF938C017B0165E540E00E941820C0E0D0E0F701EC0FFD1FC801608124
:2040C00040E00E9418202196C830D105A1F7DF91CF911F910F91FF90EF9008951F93CF93EA
:2040E000DF93EC018A8560E00E9460221DE7115010F410E028C082E090E00E941B228A85ED
:204100000E94F322892B99F38A8560E00E949F228A8561E00E94602284EF91E00E941B22BF
:204120008A8560E00E94602281E490E00E941B228A850E94F32210E0892B09F411E08AEE88
:2041400091E00E941B22812FDF91CF911F9108958F929F92AF92BF92DF92EF92FF920F9339
:204160001F93CF93DF93EC015B018985882309F080C0CE010E946E20882309F47AC0CE01CE
:2041800060EF40E00E941820DD24DA94EE24E39400E010E021E0822E912CCE010E947B1F95
:2041A000F82ECE010E947B1F282F502F569556955695C80187709070B40102C0660F771FF5
:2041C0008A95E2F7462FFF2029F0222309F051C09F2D21C0222339F58885992787FD909555
:2041E0000817190711F4D8860EC0081719076CF4262F30E0FE01E50FF11D808190E028238E
:204200003923232B19F091E003C0088790E0EE24D02E992341F0FE01E50FF11D8081842B0A
:204220008083F92E07C0FE01E50FF11D4095808148234083CE016F2D0E94DE1F0F5F1F4FA2
:204240000034110509F0A9CFEE2011F081E0898720E030E0F501E20FF31FDE01A20FB31FB8
:204260008C9180832F5F3F4F2830310599F781E001C080E0DF91CF911F910F91FF90EF9034
:20428000DF90BF90AF909F908F9008951F920F920FB60F9211242F933F938F939F93AF931F
:2042A000BF938091B9079091BA07A091BB07B091BC073091BD070196A11DB11D232F2D5F7C
:2042C0002D3720F02D570196A11DB11D2093BD078093B9079093BA07A093BB07B093BC079A
:2042E0008091B5079091B607A091B707B091B8070196A11DB11D8093B5079093B607A0931F
:20430000B707B093B807BF91AF919F918F913F912F910F900FBE0F901F9018958FB7F89434
:204320002091B9073091BA074091BB075091BC078FBFB901CA0108959FB7F8942091B50794
:204340003091B6074091B7075091B80786B5A89B06C08F3F21F02F5F3F4F4F4F5F4F9FBFC7
:20436000542F432F322F2227280F311D411D511D82E0220F331F441F551F8A95D1F7B901F0
:20438000CA0108959B01AC017FB7F8948091B5079091B607A091B707B091B80766B5A89BB2
:2043A00005C06F3F19F00196A11DB11D7FBFBA2FA92F982F8827860F911DA11DB11D62E0D8
:2043C000880F991FAA1FBB1F6A95D1F7BC012DC0FFB7F8948091B5079091B607A091B7079E
:2043E000B091B807E6B5A89B05C0EF3F19F00196A11DB11DFFBFBA2FA92F982F88278E0F2E
:20440000911DA11DB11DE2E0880F991FAA1FBB1FEA95D1F7861B970B885E9340C8F2215040
:2044200030404040504068517C4F211531054105510571F60895019739F0880F991F880FC5
:20444000991F02970197F1F70895789484B5826084BD84B5816084BD85B5826085BD85B593
:20446000816085BDEEE6F0E0808181608083E1E8F0E010828081826080838081816080839A
:20448000E0E8F0E0808181608083E1EBF0E0808184608083E0EBF0E0808181608083EAE7CA
:2044A000F0E08081846080838081826080838081816080838081806880831092C10008958D
:2044C000CF93DF93482F50E0CA018A589B4FFC0134914E595B4FFA018491882369F190E032
:2044E000880F991FFC01EC5BFB4FA591B491FC01E25BFB4FC591D491662351F42FB7F894E5
:204500008C91932F909589238C93888189230BC0623061F42FB7F8948C91932F9095892343
:204520008C938881832B88832FBF06C09FB7F8948C91832B8C939FBFDF91CF910895482FD8
:2045400050E0CA0186579B4FFC012491CA018A589B4FFC0194914E595B4FFA0134913323C7
:2045600009F440C0222351F1233071F0243028F42130A1F0223011F514C02630B1F0273037
:20458000C1F02430D9F404C0809180008F7703C0809180008F7D8093800010C084B58F77EC
:2045A00002C084B58F7D84BD09C08091B0008F7703C08091B0008F7D8093B000E32FF0E0EE
:2045C000EE0FFF1FE25BFB4FA591B4912FB7F894662321F48C919095892302C08C91892B2D
:2045E0008C932FBF0895682F70E0CB0186579B4FFC012491CB018A589B4FFC0144916E59B4
:204600007B4FFB019491992319F420E030E03CC0222351F1233071F0243028F42130A1F04D
:20462000223011F514C02630B1F02730C1F02430D9F404C0809180008F7703C0809180007F
:204640008F7D8093800010C084B58F7702C084B58F7D84BD09C08091B0008F7703C0809100
:20466000B0008F7D8093B000892F90E0880F991F885A9B4FFC01A591B4918C9120E030E0D3
:20468000842311F021E030E0C901089508951F920F920FB60F9211242F938F939F93EF93D8
:2046A000FF932091C6009091C2079F5F93708091C307981741F0E091C207F0E0E254F84FC4
:2046C00020839093C207FF91EF919F918F912F910F900FBE0F901F901895E091D607F091F5
:2046E000D7078481258190E00496821B910983709070892B11F00E94462308951F920F924E
:204700000FB60F9211242F938F939F93EF93FF939091C8078091C907981731F48091C1005D
:204720008F7D8093C10010C0E091C907F0E0EC53F84F20818091C90790E0019683709070B6
:204740008093C9072093C600FF91EF919F918F912F910F900FBE0F901F901895AF92BF92E4
:20476000DF92EF92FF920F931F93CF93DF93EC017A018B01DD24403081EE580780E068078C
:2047800080E0780711F0DD24D39491E0A92EB12CEC89FD89DD2069F0C5010E8C02C0880FA2
:2047A000991F0A94E2F7808360E079E08DE390E005C0108260E874E88EE190E0A801970133
:2047C0000E943A2B2150304040405040569547953795279580E12030380720F0DD2011F094
:2047E000DD24D6CFE889F9893083EA89FB892083EE89FF89408121E030E0C9010A8C02C0E0
:20480000880F991F0A94E2F7482B4083EE89FF894081C9010B8C02C0880F991F0A94E2F7F3
:20482000482B4083EE89FF894081C9010C8C02C0880F991F0A94E2F7482B4083EE89FF8963
:2048400080810D8C02C0220F331F0A94E2F7209528232083DF91CF911F910F91FF90EF9031
:20486000DF90BF90AF900895DC011C96ED91FC911D972481858130E02C5F3F4F281B3109FF
:2048800023703070C9010895DC011C96ED91FC911D9794818581981719F42FEF3FEF06C047
:2048A0008581E80FF11D8081282F30E0C9010895FC01A485B58514969C91149715968C9174
:2048C0001597981719F42FEF3FEF10C015968C911597FD01E80FF11D908115968C91159758
:2048E0008F5F837015968C93292F30E0C9010895DC011E96ED91FC911F9794818581981722
:20490000E1F70895DC011E96ED91FC911F978481282F30E02F5F3F4F23703070858190E09F
:2049200028173907D9F38481E80FF11D60831E96ED91FC911F9724835696ED91FC9157973E
:20494000208181E090E05D960C9002C0880F991F0A94E2F7282B208381E090E008951092C8
:20496000CD071092CC0788EE93E0A0E0B0E08093CE079093CF07A093D007B093D10784EF7C
:2049800094E09093CB078093CA078EEB97E09093D7078093D60784EC97E09093D9078093EC
:2049A000D80785EC90E09093DB078093DA0784EC90E09093DD078093DC0780EC90E0909362
:2049C000DF078093DE0781EC90E09093E1078093E00786EC90E09093E3078093E20784E0C8
:2049E0008093E40783E08093E50787E08093E60785E08093E70781E08093E8070895CF9328
:204A0000DF930E9425220E949E19CDE6D3E20E94BF172097E1F30E946D23F9CFCF92DF92AB
:204A2000EF92FF920F931F93CF93DF937C016B018A01C0E0D0E00FC0D6016D916D01D7018E
:204A4000ED91FC910190F081E02DC7010995C80FD91F015010400115110571F7CE01DF9193
:204A6000CF911F910F91FF90EF90DF90CF900895EF92FF920F931F938C01DC01ED91FC9132
:204A80000190F081E02D6DE009957C01D801ED91FC910190F081E02DC8016AE009959C015E
:204AA0002E0D3F1DC9011F910F91FF90EF900895CF93DF93DB010D900020E9F71197A61BE4
:204AC000B70BEC01E881F9810280F381E02DAD010995DF91CF9108954F925F927F928F9284
:204AE0009F92AF92BF92CF92DF92EF92FF920F931F93DF93CF93CDB7DEB7A1970FB6F89445
:204B0000DEBF0FBECDBF2C01742ECB01223008F42AE019A231E2C32ED12CCC0EDD1E822E6B
:204B20009924AA24BB24672D752FA50194010E943A2B79018A01C801B701A50194010E942E
:204B4000FC2A472D461B0894C108D1084A3014F4405D01C0495CF6014083E114F1040105ED
:204B6000110521F07E2C5F2DC801DDCFC201B6010E945825A1960FB6F894DEBF0FBECDBF4C
:204B8000CF91DF911F910F91FF90EF90DF90CF90BF90AF909F908F907F905F904F900895C3
:204BA000DC012115310541F4ED91FC910190F081E02D642F099508950E946C250895EF923E
:204BC000FF920F931F939A01E62EFF2400E010E0B801A7010E94D0251F910F91FF90EF90F8
:204BE0000895CF92DF92EF92FF920F931F936C01E62E9A01FF2400E010E0B801A7010E94CE
:204C0000D0258C01C6010E943825080F191FC8011F910F91FF90EF90DF90CF900895CF920A
:204C2000DF92EF92FF920F931F93CF93DF93EC016A017B012115310541F4E881F9810190E0
:204C4000F081E02D642F09951FC02A303105D1F477FF17C0E881F9810190F081E02D6DE2E3
:204C600009958C0144275527BA014C195D096E097F09CE012AE00E946C259801280F391F69
:204C800004C02AE00E946C259C01C901DF91CF911F910F91FF90EF90DF90CF900895CF92B2
:204CA000DF92EF92FF920F931F936C017B019A010027F7FC0095102FB801A7010E940F2673
:204CC0008C01C6010E943825080F191FC8011F910F91FF90EF90DF90CF9008950E94582581
:204CE00008957F928F929F92AF92BF92CF92DF92EF92FF920F931F93CF93DF934C017A014E
:204D00008B01722ECB01BA0120E030E040E050E00E94DF2787FD03C0C0E0D0E00EC0D4019E
:204D2000ED91FC910190F081E02DC4016DE20995EC0117FB109517F9109520E030E040E01E
:204D40005FE3AA240BC0CA01B90120E030E040E251E40E94E3279B01AC01A394A71498F31A
:204D6000C801B7010E947B275B016C010E9450287B018C01C401B801A7012AE030E00E94A0
:204D8000D025C80FD91F772039F0C40161E872E00E945825C80FD91FC801B7010E947C287A
:204DA0009B01AC01C601B5010E947A2724C020E030E040E251E40E9432297B018C010E94F7
:204DC0004B285B016C01CC24B7FCC094DC2CC401B601A5012AE030E00E940F26C80FD91FB6
:204DE000C601B5010E947E289B01AC01C801B7010E947A277A947720D1F6CE01DF91CF91D6
:204E00001F910F91FF90EF90DF90CF90BF90AF909F908F907F900895EF92FF920F931F9378
:204E20007C010E9471268C01C7010E943825080F191FC8011F910F91FF90EF900895EF92D4
:204E4000FF920F931F937C010E9458258C01C7010E943825080F191FC8011F910F91FF9086
:204E6000EF900895EF92FF920F931F937B018C01611571058105910529F420E030E040E052
:204E800050E00BC00E946E03A80197010E945C2BAC01CB01DA019C01AD01B901CA011F91C6
:204EA0000F91FF90EF900895EF92FF920F931F937B018C01621773078407950764F4261B85
:204EC000370B480B590BCA01B9010E943227E60EF71E081F191FB701C8011F910F91FF9091
:204EE000EF900895009729F0BC0180E090E00E94730308955058BB27AA270ED075C166D1FE
:204F000030F06BD120F031F49F3F11F41EF45BC10EF4E095E7FB51C1E92F77D180F3BA17E0
:204F2000620773078407950718F071F49EF58FC10EF4E0950B2EBA2FA02D0B01B90190015A
:204F40000C01CA01A0011124FF27591B99F0593F50F4503E68F11A16F040A22F232F342FD7
:204F60004427585FF3CF469537952795A795F0405395C9F77EF41F16BA0B620B730B840BF0
:204F8000BAF09150A1F0FF0FBB1F661F771F881FC2F70EC0BA0F621F731F841F48F48795ED
:204FA00077956795B795F7959E3F08F0B3CF9395880F08F09927EE0F979587950895D9D0B8
:204FC00008F481E008950CD00FC107D140F0FED030F021F45F3F19F0F0C0511139C1F3C0BA
:204FE00014D198F39923C9F35523B1F3951B550BBB27AA2762177307840738F09F5F5F4F98
:20500000220F331F441FAA1FA9F333D00E2E3AF0E0E830D091505040E695001CCAF729D052
:20502000FE2F27D0660F771F881FBB1F261737074807AB07B0E809F0BB0B802DBF01FF275A
:2050400093585F4F2AF09E3F510568F0B6C000C15F3FECF3983EDCF3869577956795B7954A
:20506000F7959F5FC9F7880F911D9695879597F90895E1E0660F771F881FBB1F62177307ED
:205080008407BA0720F0621B730B840BBA0BEE1F88F7E095089504D06894B111D9C00895FF
:2050A000BCD088F09F5790F0B92F9927B751A0F0D1F0660F771F881F991F1AF0BA95C9F7F2
:2050C00012C0B13081F0C3D0B1E00895C0C0672F782F8827B85F39F0B93FCCF38695779561
:2050E0006795B395D9F73EF490958095709561957F4F8F4F9F4F0895E89409C097FB3EF4F5
:2051000090958095709561957F4F8F4F9F4F9923A9F0F92F96E9BB279395F6958795779507
:205120006795B795F111F8CFFAF4BB0F11F460FF1BC06F5F7F4F8F4F9F4F16C0882311F07D
:2051400096E911C0772321F09EE8872F762F05C0662371F096E8862F70E060E02AF09A95B8
:20516000660F771F881FDAF7880F9695879597F90895990F0008550FAA0BE0E8FEEF1616F7
:205180001706E807F907C0F012161306E407F50798F0621B730B840B950B39F40A2661F0CB
:2051A000232B242B252B21F408950A2609F4A140A6958FEF811D811D089597F99F6780E8B2
:2051C00070E060E008959FEF80EC089500240A941616170618060906089500240A9412164C
:2051E0001306140605060895092E0394000C11F4882352F0BB0F40F4BF2B11F460FF04C0F8
:205200006F5F7F4F8F4F9F4F089557FD9058440F551F59F05F3F71F04795880F97FB991F81
:2052200061F09F3F79F087950895121613061406551FF2CF4695F1DF08C0161617061806B3
:20524000991FF1CF86957105610508940895E894BB2766277727CB0197F908958ADF08F4BF
:205260008FEF08950BD0C0CFB1DF28F0B6DF18F0952309F0A2CFA7CF1124EACFC6DFA0F3A6
:20528000959FD1F3950F50E0551F629FF001729FBB27F00DB11D639FAA27F00DB11DAA1FB7
:2052A000649F6627B00DA11D661F829F2227B00DA11D621F739FB00DA11D621F839FA00D1B
:2052C000611D221F749F3327A00D611D231F849F600D211D822F762F6A2F11249F575040BD
:2052E0008AF0E1F088234AF0EE0FFF1FBB1F661F771F881F91505040A9F79E3F510570F023
:205300005CCFA6CF5F3FECF3983EDCF3869577956795B795F795E7959F5FC1F7FE2B880FDE
:20532000911D9695879597F90895FA01EE0FFF1F30962105310599F16115710561F4803890
:20534000BFE39B0749F168949038810561F08038BFEF9B0741F0992342F5FF3FE1053105AE
:20536000210511F1E8940894E795D901AA2329F4AB2FBE2FF85FD0F310C0FF5F70F4A695FF
:20538000E0F7F73950F019F0FF3A38F49F779F930CD00F9007FC905808953EF014CF60E0BC
:2053A00070E080E89FE308954FE79F775F934F933F932F939ED02F913F914F915F9152DF63
:2053C00005C019F40EF0F9CE42CFFDCE26DFC8F39638C0F707F80F92E8942BE33AEA48EB94
:2053E0005FE74EDF0F920F920F924DB75EB70F92C0D0E8E6F0E016D04F915F91EF91FF91A9
:20540000E595EE1FFF1F49F0FE57E0684427EE0F441FFA95E1F74195550B32D00F9007FE03
:2054200026C00895DF93CF931F930F93FF92EF92DF927B018C01689405C0DA2EEF011EDF7F
:20544000FE01E894A5912591359145915591AEF3EF0162DDFE019701A801DA9479F7DF9006
:20546000EF90FF900F911F91CF91DF9108959B01AC0160E070E080E89FE3A5CD9ECEACC054
:20548000CCDEE8F39923D9F3940F511DBBF39150504094F059F0882332F0660F771F881F83
:2054A00091505040C1F79E3F510544F7880F911D9695879597F908955F3FACF0983E9CF000
:2054C000BB27869577956795B79508F4B1609395C1F7BB0F58F711F460FFE8CF6F5F7F4FBE
:2054E0008F4F9F4FE3CFB4CE0EF076C06CCE689464CE93DEC8F39923D1F3C6F3DF93CF93D7
:205500001F930F93FF92C92FDD2788232AF02197660F771F881FDAF720E030E040E85FEB28
:205520009FE3883920F0803E30F021968F77E3DCE0E9F0E003C0DFDCEDEBF0E073DF8B0121
:20554000BE01EC01FB2E6F5771097595771F880B990BD4DD28E132E741E35FE38FDEAF2DDD
:205560009801AE01FF900F911F91CF91DF91D4DC3BCEFA01DC01AA0FBB1F9B01AC01BF57B1
:2055800028F422273327442750781FC0B75188F4AB2F0024469537952795011CA395D2F33B
:2055A000002069F0220F331F441FB395DAF30DD0A1CC61307105A0E88A07B94630F49B014E
:2055C000AC016627772788279078309621F0208331834283538308959F3F49F0915028F4C2
:2055E000869577956795B7959F5F80389F4F880F9695879597F90895629FD001739FF001B8
:20560000829FE00DF11D649FE00DF11D929FF00D839FF00D749FF00D659FF00D9927729F41
:20562000B00DE11DF91F639FB00DE11DF91FBD01CF0111240895991B79E004C0991F96172C
:2056400008F0961B881F7A95C9F78095089597FB092E07260AD077FD04D049D006D0002052
:205660001AF4709561957F4F0895F6F7909581959F4F0895A1E21A2EAA1BBB1BFD010DC0D2
:20568000AA1FBB1FEE1FFF1FA217B307E407F50720F0A21BB30BE40BF50B661F771F881FA6
:2056A000991F1A9469F760957095809590959B01AC01BD01CF01089597FB092E05260ED0AA
:2056C00057FD04D0D7DF0AD0001C38F450954095309521953F4F4F4F5F4F0895F6F790950C
:2056E0008095709561957F4F8F4F9F4F0895AA1BBB1B51E107C0AA1FBB1FA617B70710F0B1
:20570000A61BB70B881F991F5A95A9F780959095BC01CD010895EE0FFF1F0590F491E02D74
:2057200009942F923F924F925F926F927F928F929F92AF92BF92CF92DF92EF92FF920F93EC
:205740001F93CF93DF93CDB7DEB7CA1BDB0B0FB6F894DEBF0FBECDBF09942A8839884888B8
:205760005F846E847D848C849B84AA84B984C884DF80EE80FD800C811B81AA81B981CE0FB8
:20578000D11D0FB6F894DEBF0FBECDBFED010895F894FFCF42616E6E65723A20002D2D2DB8
:2057A0002D2D005261696E207374617274696E673A2000200058002E00004C6F676F207355
:2057C00074617274696E67002532643A2530326400683A20006D3A2000623A20004C696690
:2057E00065207374617274696E67003A0020402067656E200054656D703A200025733C00E0
:2058000054656D70204572726F723A2000446965642064756520746F207374696C6C206CC3
:205820006966652061742067656E65726174696F6E2000446965642064756520746F206F6D
:205840007363696C6C6174696F6E2061742067656E65726174696F6E2000446965642064BB
:20586000756520746F206C6F6E656C7920676C696465722061742067656E65726174696F2E
:205880006E2000446965642064756520746F206D6574687573656C616827732073796E64DB
:2058A000726F6D652061742067656E65726174696F6E20006565736176650065656E6F7341
:2058C000617665004261636B20696E206C6F6F700052657175657374696E672074656D704D
:2058E0002E005570646174696E672074696D650052483A20004448542054656D703A20008B
:2059000025733C2025643B004552520043686B73756D3A20002E0001000000010304020BDD
:20592000000A00EA000000EE00040116012E0144015A0174018A019C01B201C801CE01EAC8
:20594000010000000000000000F4010E022A023E02580274028A02A202BC02D002E002F66D
:2059600002060322033E0354036A0384039E03B403C403DA03EE030C04200430042E005A8E
:20598000001F0131323A333400747474743C206868683B000C020C030C040C050C060C07E1
:2059A0000C080C090C0A0C0B0B020B030B040B050B060B070B080B090B0A0B0C0A020A03C8
:2059C0000A040A050A060A070A080A090A0B0A0C0902090309040905090609070908090AC4
:2059E000090B090C0802080308040805080608070809080A080B080C0702070307040705BF
:205A0000070607080709070A070B070C0602060306040605060706080609060A060B060CA1
:205A20000502050305040506050705080509050A050B050C040204030405040604070408B5
:205A40000409040A040B040C0302030403050306030703080309030A030B030C0203020499
:205A600002050206020702080209020A020B020C00000000491C181CD11BDA1BEF1B001C32
:205A8000005EBCE2613FDD83C29C7E20A3FD1F419DC3217FFCA2401E5F01E3BD3E6082DC16
:205AA000237D9FC1421CFEA0E1BF5D0380DE3C62BEE0025CDF81633D7C22C09E1D43A1FFF6
:205AC0004618FAA427799BC584DA3866E5BB5907DB856739BAE406581947A5FB7826C49AD6
:205AE000653BD987045AB8E6A7F91B45C6987A24F8A6441A99C7257B3A6486D85B05E7B9B6
:205B00008CD2306EEDB3510F4E10F2AC2F7193CD114FADF3702ECC92D38D6F31B2EC0E5095
:205B2000AFF1134DCE90722C6D33D18F0C52B0EE326C8ED0530DEFB1F0AE4C1291CF2D7375
:205B4000CA947628ABF517490856B4EA6937D58B5709EBB536688AD495CB2977F4AA481655
:205B6000E9B7550B88D6346A2B7597C94A14F6A8742AC896154BA9F7B6E80A54D7896B3535
:205B8000053737050000000082240E253424582444247824702ECC92D38D6F31B2EC0E50E4
:205BA000AFF1134DCE90722C6D33D18F0C52B0EE326C8ED0530DEFB1F0AE4C1291CF2D73F5
:205BC000CA947628ABF517490856B4EA6937D58B5709EBB536688AD495CB2977F4AA4816D5
:205BE000E9B7550B88D6346A2B7597C94A14F6A8742AC896154BA9F7B6E80A54D7896B35B5
:205C0000D002E002F602060322033E0354036A0384039E03B403C403DA03EE030C042004FD
:205C200030042E005A001F0131323A333400747474743C206868683B000C020C030C040CAC
:205C4000050C060C070C080C090C0A0C0B0B020B030B040B050B060B070B080B090B0A0B20
:205C60000C0A020A030A040A050A060A070A080A090A0B0A0C090209030904090509060927
:205C8000070908090A090B090C0802080308040805080608070809080A080B080C0702070B
:205CA0000307040705070607080709070A070B070C06020603060406050607060806090612
:205CC0000A060B060C0502050305040506050705080509050A050B050C0402040304050403
:205CE00006040704080409040A040B040C0302030403050306030703080309030A030B03F1
:205D00000C0203020402050206020702080209020A020B020C000000007A1D491D021D0BF1
:205D20001D201D311D005EBCE2613FDD83C29C7E20A3FD1F419DC3217FFCA2401E5F01E384
:205D4000BD3E6082DC237D9FC1421CFEA0E1BF5D0380DE3C62BEE0025CDF81633D7C22C038
:205D60009E1D43A1FF4618FAA427799BC584DA3866E5BB5907DB856739BAE406581947A58C
:205D8000FB7826C49A653BD987045AB8E6A7F91B45C6987A24F8A6441A99C7257B3A6486F4
:205DA000D85B05E7B98CD2306EEDB3510F4E10F2AC2F7193CD114FADF3702ECC92D38D6F48
:205DC00031B2EC0E50AFF1134DCE90722C6D33D18F0C52B0EE326C8ED0530DEFB1F0AE4CB8
:205DE0001291CF2D73CA947628ABF517490856B4EA6937D58B5709EBB536688AD495CB2914
:205E000077F4AA4816E9B7550B88D6346A2B7597C94A14F6A8742AC896154BA9F7B6E80A73
:205E200054D7896B35053737050000000080260C273226562642267626002ECC92D38D6F8A
:205E400031B2EC0E50AFF1134DCE90722C6D33D18F0C52B0EE326C8ED0530DEFB1F0AE4C37
:205E60001291CF2D73CA947628ABF517490856B4EA6937D58B5709EBB536688AD495CB2993
:205E8000656E6F73617665004261636B20696E206C6F6F700052657175657374696E672088
:205EA00074656D702E005570646174696E672074696D650048756D69646974793A20002527
:205EC000733C2025643B0048756D69646974793A204552520043686B73756D3A20000100D9
:205EE0000000010304020B000A00EA000000EE00040116012E0144015A0174018A019C0123
:205F0000B201C801CE01EA010000000000000000F4010E022A023E02580274028A02A202DA
:205F2000BC02D002E002F602060322033E0354036A0384039E03B403C403DA03EE030C0440
:205F4000200430042E005A001F0131323A333400747474743C206868683B000C020C030C75
:205F6000040C050C060C070C080C090C0A0C0B0B020B030B040B050B060B070B080B090B02
:205F80000A0B0C0A020A030A040A050A060A070A080A090A0B0A0C090209030904090509FE
:205FA0000609070908090A090B090C0802080308040805080608070809080A080B080C07E2
:205FC00002070307040705070607080709070A070B070C06020603060406050607060806F5
:205FE00009060A060B060C0502050305040506050705080509050A050B050C0402040304DA
:20600000050406040704080409040A040B040C0302030403050306030703080309030A03D2
:206020000B030C0203020402050206020702080209020A020B020C000000000B1FDA1E9332
:206040001E9C1EB11EC21E005EBCE2613FDD83C29C7E20A3FD1F419DC3217FFCA2401E5F66
:2060600001E3BD3E6082DC237D9FC1421CFEA0E1BF5D0380DE3C62BEE0025CDF81633D7C13
:2060800022C09E1D43A1FF4618FAA427799BC584DA3866E5BB5907DB856739BAE406581973
:2060A00047A5FB7826C49A653BD987045AB8E6A7F91B45C6987A24F8A6441A99C7257B3ACF
:2060C0006486D85B05E7B98CD2306EEDB3510F4E10F2AC2F7193CD114FADF3702ECC92D337
:2060E0008D6F31B2EC0E50AFF1134DCE90722C6D33D18F0C52B0EE326C8ED0530DEFB1F093
:20610000AE4C1291CF2D73CA947628ABF517490856B4EA6937D58B5709EBB536688AD495EA
:20612000CB2977F4AA4816E9B7550B88D6346A2B7597C94A14F6A8742AC896154BA9F7B64E
:20614000E80A54D7896B35053737050000000011289D28C327E727D3270728002ECC92D303
:206160008D6F31B2EC0E50AFF1134DCE90722C6D33D18F0C52B0EE326C8ED0530DEFB1F012
:20618000D7896B3505373705000000002128AD28D327F727E3271728702ECC92D38D6F310C
:2061A000B2EC0E50AFF1134DCE90722C6D33D18F0C52B0EE326C8ED0530DEFB1F0AE4C12F3
:2061C00091CF2D73CA947628ABF517490856B4EA6937D58B5709EBB536688AD495CB2977CB
:2061E000F4AA4816E9B7550B88D6346A2B7597C94A14F6A8742AC896154BA9F7B6E80A54B3
:20620000FFFFFFFFFFFFFFFFFFFFFFFFFFFFFFFFFFFFFFFFFFFFFFFFFFFFFFFFFFFFFFFF9E
:20622000FFFFFFFFFFFFFFFFFFFFFFFFFFFFFFFFFFFFFFFFFFFFFFFFFFFFFFFFFFFFFFFF7E
:20624000FFFFFFFFFFFFFFFFFFFFFFFFFFFFFFFFFFFFFFFFFFFFFFFFFFFFFFFFFFFFFFFF5E
:20626000FFFFFFFFFFFFFFFFFFFFFFFFFFFFFFFFFFFFFFFFFFFFFFFFFFFFFFFFFFFFFFFF3E
:207E0000112484B714BE81FFF0D085E08093810082E08093C00088E18093C10086E08093FC
:207E2000C20080E18093C4008EE0C9D0259A86E020E33CEF91E0309385002093840096BBAD
:207E4000B09BFECF1D9AA8958150A9F7CC24DD2488248394B5E0AB2EA1E19A2EF3E0BF2E79
:207E6000A2D0813461F49FD0082FAFD0023811F0013811F484E001C083E08DD089C0823404
:207E800011F484E103C0853419F485E0A6D080C0853579F488D0E82EFF2485D0082F10E0A0
:207EA000102F00270E291F29000F111F8ED068016FC0863521F484E090D080E0DECF84364D
:207EC00009F040C070D06FD0082F6DD080E0C81680E7D80618F4F601B7BEE895C0E0D1E0ED
:207EE00062D089930C17E1F7F0E0CF16F0E7DF0618F0F601B7BEE89568D007B600FCFDCF1A
:207F0000A601A0E0B1E02C9130E011968C91119790E0982F8827822B932B1296FA010C016F
:207F200087BEE89511244E5F5F4FF1E0A038BF0751F7F601A7BEE89507B600FCFDCF97BE85
:207F4000E89526C08437B1F42ED02DD0F82E2BD03CD0F601EF2C8F010F5F1F4F84911BD0B8
:207F6000EA94F801C1F70894C11CD11CFA94CF0CD11C0EC0853739F428D08EE10CD085E9AE
:207F80000AD08FE07ACF813511F488E018D01DD080E101D065CF982F8091C00085FFFCCF0A
:207FA0009093C60008958091C00087FFFCCF8091C00084FD01C0A8958091C6000895E0E68F
:207FC000F0E098E1908380830895EDDF803219F088E0F5DFFFCF84E1DECF1F93182FE3DF47
:207FE0001150E9F7F2DF1F91089580E0E8DFEE27FF270994FFFFFFFFFFFFFFFFFFFF040425
:00000001FF
